{
  "_format": "hh-sol-artifact-1",
  "contractName": "OffchainResolver",
  "sourceName": "contracts/OffchainResolver.sol",
  "abi": [
    {
      "inputs": [
        {
          "internalType": "string",
          "name": "_url",
          "type": "string"
        },
        {
          "internalType": "address[]",
          "name": "_signers",
          "type": "address[]"
        }
      ],
      "stateMutability": "nonpayable",
      "type": "constructor"
    },
    {
      "inputs": [
        {
          "internalType": "address",
          "name": "sender",
          "type": "address"
        },
        {
          "internalType": "string[]",
          "name": "urls",
          "type": "string[]"
        },
        {
          "internalType": "bytes",
          "name": "callData",
          "type": "bytes"
        },
        {
          "internalType": "bytes4",
          "name": "callbackFunction",
          "type": "bytes4"
        },
        {
          "internalType": "bytes",
          "name": "extraData",
          "type": "bytes"
        }
      ],
      "name": "OffchainLookup",
      "type": "error"
    },
    {
      "anonymous": false,
      "inputs": [
        {
          "indexed": false,
          "internalType": "address[]",
          "name": "signers",
          "type": "address[]"
        }
      ],
      "name": "NewSigners",
      "type": "event"
    },
    {
      "inputs": [
        {
          "internalType": "address",
          "name": "target",
          "type": "address"
        },
        {
          "internalType": "uint64",
          "name": "expires",
          "type": "uint64"
        },
        {
          "internalType": "bytes",
          "name": "request",
          "type": "bytes"
        },
        {
          "internalType": "bytes",
          "name": "result",
          "type": "bytes"
        }
      ],
      "name": "makeSignatureHash",
      "outputs": [
        {
          "internalType": "bytes32",
          "name": "",
          "type": "bytes32"
        }
      ],
      "stateMutability": "pure",
      "type": "function"
    },
    {
      "inputs": [
        {
          "internalType": "bytes",
          "name": "name",
          "type": "bytes"
        },
        {
          "internalType": "bytes",
          "name": "data",
          "type": "bytes"
        }
      ],
      "name": "resolve",
      "outputs": [
        {
          "internalType": "bytes",
          "name": "",
          "type": "bytes"
        }
      ],
      "stateMutability": "view",
      "type": "function"
    },
    {
      "inputs": [
        {
          "internalType": "bytes",
          "name": "response",
          "type": "bytes"
        },
        {
          "internalType": "bytes",
          "name": "extraData",
          "type": "bytes"
        }
      ],
      "name": "resolveWithProof",
      "outputs": [
        {
          "internalType": "bytes",
          "name": "",
          "type": "bytes"
        }
      ],
      "stateMutability": "view",
      "type": "function"
    },
    {
      "inputs": [
        {
          "internalType": "address",
          "name": "",
          "type": "address"
        }
      ],
      "name": "signers",
      "outputs": [
        {
          "internalType": "bool",
          "name": "",
          "type": "bool"
        }
      ],
      "stateMutability": "view",
      "type": "function"
    },
    {
      "inputs": [
        {
          "internalType": "bytes4",
          "name": "interfaceID",
          "type": "bytes4"
        }
      ],
      "name": "supportsInterface",
      "outputs": [
        {
          "internalType": "bool",
          "name": "",
          "type": "bool"
        }
      ],
      "stateMutability": "pure",
      "type": "function"
    },
    {
      "inputs": [],
      "name": "url",
      "outputs": [
        {
          "internalType": "string",
          "name": "",
          "type": "string"
        }
      ],
      "stateMutability": "view",
      "type": "function"
    }
  ],
  "bytecode": "0x60806040523480156200001157600080fd5b506040516200214a3803806200214a8339818101604052810190620000379190620004b6565b81600090805190602001906200004f92919062000129565b5060005b8151811015620000e75760018060008484815181106200007857620000776200053b565b5b602002602001015173ffffffffffffffffffffffffffffffffffffffff1673ffffffffffffffffffffffffffffffffffffffff16815260200190815260200160002060006101000a81548160ff0219169083151502179055508080620000de90620005a3565b91505062000053565b507fab0b9cc3a46b568cb08d985497cde8ab7e18892d01f58db7dc7f0d2af859b2d781604051620001199190620006bf565b60405180910390a1505062000748565b828054620001379062000712565b90600052602060002090601f0160209004810192826200015b5760008555620001a7565b82601f106200017657805160ff1916838001178555620001a7565b82800160010185558215620001a7579182015b82811115620001a657825182559160200191906001019062000189565b5b509050620001b69190620001ba565b5090565b5b80821115620001d5576000816000905550600101620001bb565b5090565b6000604051905090565b600080fd5b600080fd5b600080fd5b600080fd5b6000601f19601f8301169050919050565b7f4e487b7100000000000000000000000000000000000000000000000000000000600052604160045260246000fd5b6200024282620001f7565b810181811067ffffffffffffffff8211171562000264576200026362000208565b5b80604052505050565b600062000279620001d9565b905062000287828262000237565b919050565b600067ffffffffffffffff821115620002aa57620002a962000208565b5b620002b582620001f7565b9050602081019050919050565b60005b83811015620002e2578082015181840152602081019050620002c5565b83811115620002f2576000848401525b50505050565b60006200030f62000309846200028c565b6200026d565b9050828152602081018484840111156200032e576200032d620001f2565b5b6200033b848285620002c2565b509392505050565b600082601f8301126200035b576200035a620001ed565b5b81516200036d848260208601620002f8565b91505092915050565b600067ffffffffffffffff82111562000394576200039362000208565b5b602082029050602081019050919050565b600080fd5b600073ffffffffffffffffffffffffffffffffffffffff82169050919050565b6000620003d782620003aa565b9050919050565b620003e981620003ca565b8114620003f557600080fd5b50565b6000815190506200040981620003de565b92915050565b600062000426620004208462000376565b6200026d565b905080838252602082019050602084028301858111156200044c576200044b620003a5565b5b835b81811015620004795780620004648882620003f8565b8452602084019350506020810190506200044e565b5050509392505050565b600082601f8301126200049b576200049a620001ed565b5b8151620004ad8482602086016200040f565b91505092915050565b60008060408385031215620004d057620004cf620001e3565b5b600083015167ffffffffffffffff811115620004f157620004f0620001e8565b5b620004ff8582860162000343565b925050602083015167ffffffffffffffff811115620005235762000522620001e8565b5b620005318582860162000483565b9150509250929050565b7f4e487b7100000000000000000000000000000000000000000000000000000000600052603260045260246000fd5b7f4e487b7100000000000000000000000000000000000000000000000000000000600052601160045260246000fd5b6000819050919050565b6000620005b08262000599565b91507fffffffffffffffffffffffffffffffffffffffffffffffffffffffffffffffff821415620005e657620005e56200056a565b5b600182019050919050565b600081519050919050565b600082825260208201905092915050565b6000819050602082019050919050565b6200062881620003ca565b82525050565b60006200063c83836200061d565b60208301905092915050565b6000602082019050919050565b60006200066282620005f1565b6200066e8185620005fc565b93506200067b836200060d565b8060005b83811015620006b25781516200069688826200062e565b9750620006a38362000648565b9250506001810190506200067f565b5085935050505092915050565b60006020820190508181036000830152620006db818462000655565b905092915050565b7f4e487b7100000000000000000000000000000000000000000000000000000000600052602260045260246000fd5b600060028204905060018216806200072b57607f821691505b60208210811415620007425762000741620006e3565b5b50919050565b6119f280620007586000396000f3fe608060405234801561001057600080fd5b50600436106100625760003560e01c806301ffc9a7146100675780631dcfea09146100975780635600f04f146100c7578063736c0d5b146100e55780639061b92314610115578063f4d4d2f814610145575b600080fd5b610081600480360381019061007c9190610b06565b610175565b60405161008e9190610b4e565b60405180910390f35b6100b160048036038101906100ac9190610d4d565b6101ef565b6040516100be9190610e05565b60405180910390f35b6100cf610207565b6040516100dc9190610ea8565b60405180910390f35b6100ff60048036038101906100fa9190610eca565b610295565b60405161010c9190610b4e565b60405180910390f35b61012f600480360381019061012a9190610f57565b6102b5565b60405161013c919061102d565b60405180910390f35b61015f600480360381019061015a9190610f57565b6104a1565b60405161016c919061102d565b60405180910390f35b60007f9061b923000000000000000000000000000000000000000000000000000000007bffffffffffffffffffffffffffffffffffffffffffffffffffffffff1916827bffffffffffffffffffffffffffffffffffffffffffffffffffffffff191614806101e857506101e78261054f565b5b9050919050565b60006101fd858585856105b9565b9050949350505050565b600080546102149061107e565b80601f01602080910402602001604051908101604052809291908181526020018280546102409061107e565b801561028d5780601f106102625761010080835404028352916020019161028d565b820191906000526020600020905b81548152906001019060200180831161027057829003601f168201915b505050505081565b60016020528060005260406000206000915054906101000a900460ff1681565b60606000639061b92360e01b868686866040516024016102d894939291906110dd565b604051602081830303815290604052907bffffffffffffffffffffffffffffffffffffffffffffffffffffffff19166020820180517bffffffffffffffffffffffffffffffffffffffffffffffffffffffff838183161783525050505090506000600167ffffffffffffffff81111561035457610353610c22565b5b60405190808252806020026020018201604052801561038757816020015b60608152602001906001900390816103725790505b509050600080546103979061107e565b80601f01602080910402602001604051908101604052809291908181526020018280546103c39061107e565b80156104105780601f106103e557610100808354040283529160200191610410565b820191906000526020600020905b8154815290600101906020018083116103f357829003601f168201915b50505050508160008151811061042957610428611118565b5b602002602001018190525030818363f4d4d2f860e01b8530604051602001610452929190611156565b6040516020818303038152906040526040517f556f18300000000000000000000000000000000000000000000000000000000081526004016104989594939291906112a1565b60405180910390fd5b60606000806104b285858989610600565b91509150600160008373ffffffffffffffffffffffffffffffffffffffff1673ffffffffffffffffffffffffffffffffffffffff16815260200190815260200160002060009054906101000a900460ff16610542576040517f08c379a00000000000000000000000000000000000000000000000000000000081526004016105399061137b565b60405180910390fd5b8092505050949350505050565b60007f01ffc9a7000000000000000000000000000000000000000000000000000000007bffffffffffffffffffffffffffffffffffffffffffffffffffffffff1916827bffffffffffffffffffffffffffffffffffffffffffffffffffffffff1916149050919050565b60008484848051906020012084805190602001206040516020016105e09493929190611491565b604051602081830303815290604052805190602001209050949350505050565b600060606000806000868681019061061891906114ea565b9250925092506000808a8a81019061063091906115b3565b91509150600061064b6106458387868a6105b9565b856106af565b9050428567ffffffffffffffff16101561069a576040517f08c379a000000000000000000000000000000000000000000000000000000000815260040161069190611681565b60405180910390fd5b80869750975050505050505094509492505050565b60008060006106be85856106d6565b915091506106cb81610759565b819250505092915050565b6000806041835114156107185760008060006020860151925060408601519150606086015160001a905061070c8782858561092e565b94509450505050610752565b60408351141561074957600080602085015191506040850151905061073e868383610a3b565b935093505050610752565b60006002915091505b9250929050565b6000600481111561076d5761076c6116a1565b5b8160048111156107805761077f6116a1565b5b141561078b5761092b565b6001600481111561079f5761079e6116a1565b5b8160048111156107b2576107b16116a1565b5b14156107f3576040517f08c379a00000000000000000000000000000000000000000000000000000000081526004016107ea9061171c565b60405180910390fd5b60026004811115610807576108066116a1565b5b81600481111561081a576108196116a1565b5b141561085b576040517f08c379a000000000000000000000000000000000000000000000000000000000815260040161085290611788565b60405180910390fd5b6003600481111561086f5761086e6116a1565b5b816004811115610882576108816116a1565b5b14156108c3576040517f08c379a00000000000000000000000000000000000000000000000000000000081526004016108ba9061181a565b60405180910390fd5b6004808111156108d6576108d56116a1565b5b8160048111156108e9576108e86116a1565b5b141561092a576040517f08c379a0000000000000000000000000000000000000000000000000000000008152600401610921906118ac565b60405180910390fd5b5b50565b6000807f7fffffffffffffffffffffffffffffff5d576e7357a4501ddfe92f46681b20a08360001c1115610969576000600391509150610a32565b601b8560ff16141580156109815750601c8560ff1614155b15610993576000600491509150610a32565b6000600187878787604051600081526020016040526040516109b894939291906118e8565b6020604051602081039080840390855afa1580156109da573d6000803e3d6000fd5b505050602060405103519050600073ffffffffffffffffffffffffffffffffffffffff168173ffffffffffffffffffffffffffffffffffffffff161415610a2957600060019250925050610a32565b80600092509250505b94509492505050565b60008060007f7fffffffffffffffffffffffffffffffffffffffffffffffffffffffffffffff60001b841690506000601b60ff8660001c901c610a7e9190611966565b9050610a8c8782888561092e565b935093505050935093915050565b6000604051905090565b600080fd5b600080fd5b60007fffffffff0000000000000000000000000000000000000000000000000000000082169050919050565b610ae381610aae565b8114610aee57600080fd5b50565b600081359050610b0081610ada565b92915050565b600060208284031215610b1c57610b1b610aa4565b5b6000610b2a84828501610af1565b91505092915050565b60008115159050919050565b610b4881610b33565b82525050565b6000602082019050610b636000830184610b3f565b92915050565b600073ffffffffffffffffffffffffffffffffffffffff82169050919050565b6000610b9482610b69565b9050919050565b610ba481610b89565b8114610baf57600080fd5b50565b600081359050610bc181610b9b565b92915050565b600067ffffffffffffffff82169050919050565b610be481610bc7565b8114610bef57600080fd5b50565b600081359050610c0181610bdb565b92915050565b600080fd5b600080fd5b6000601f19601f8301169050919050565b7f4e487b7100000000000000000000000000000000000000000000000000000000600052604160045260246000fd5b610c5a82610c11565b810181811067ffffffffffffffff82111715610c7957610c78610c22565b5b80604052505050565b6000610c8c610a9a565b9050610c988282610c51565b919050565b600067ffffffffffffffff821115610cb857610cb7610c22565b5b610cc182610c11565b9050602081019050919050565b82818337600083830152505050565b6000610cf0610ceb84610c9d565b610c82565b905082815260208101848484011115610d0c57610d0b610c0c565b5b610d17848285610cce565b509392505050565b600082601f830112610d3457610d33610c07565b5b8135610d44848260208601610cdd565b91505092915050565b60008060008060808587031215610d6757610d66610aa4565b5b6000610d7587828801610bb2565b9450506020610d8687828801610bf2565b935050604085013567ffffffffffffffff811115610da757610da6610aa9565b5b610db387828801610d1f565b925050606085013567ffffffffffffffff811115610dd457610dd3610aa9565b5b610de087828801610d1f565b91505092959194509250565b6000819050919050565b610dff81610dec565b82525050565b6000602082019050610e1a6000830184610df6565b92915050565b600081519050919050565b600082825260208201905092915050565b60005b83811015610e5a578082015181840152602081019050610e3f565b83811115610e69576000848401525b50505050565b6000610e7a82610e20565b610e848185610e2b565b9350610e94818560208601610e3c565b610e9d81610c11565b840191505092915050565b60006020820190508181036000830152610ec28184610e6f565b905092915050565b600060208284031215610ee057610edf610aa4565b5b6000610eee84828501610bb2565b91505092915050565b600080fd5b600080fd5b60008083601f840112610f1757610f16610c07565b5b8235905067ffffffffffffffff811115610f3457610f33610ef7565b5b602083019150836001820283011115610f5057610f4f610efc565b5b9250929050565b60008060008060408587031215610f7157610f70610aa4565b5b600085013567ffffffffffffffff811115610f8f57610f8e610aa9565b5b610f9b87828801610f01565b9450945050602085013567ffffffffffffffff811115610fbe57610fbd610aa9565b5b610fca87828801610f01565b925092505092959194509250565b600081519050919050565b600082825260208201905092915050565b6000610fff82610fd8565b6110098185610fe3565b9350611019818560208601610e3c565b61102281610c11565b840191505092915050565b600060208201905081810360008301526110478184610ff4565b905092915050565b7f4e487b7100000000000000000000000000000000000000000000000000000000600052602260045260246000fd5b6000600282049050600182168061109657607f821691505b602082108114156110aa576110a961104f565b5b50919050565b60006110bc8385610fe3565b93506110c9838584610cce565b6110d283610c11565b840190509392505050565b600060408201905081810360008301526110f88186886110b0565b9050818103602083015261110d8184866110b0565b905095945050505050565b7f4e487b7100000000000000000000000000000000000000000000000000000000600052603260045260246000fd5b61115081610b89565b82525050565b600060408201905081810360008301526111708185610ff4565b905061117f6020830184611147565b9392505050565b600081519050919050565b600082825260208201905092915050565b6000819050602082019050919050565b600082825260208201905092915050565b60006111ce82610e20565b6111d881856111b2565b93506111e8818560208601610e3c565b6111f181610c11565b840191505092915050565b600061120883836111c3565b905092915050565b6000602082019050919050565b600061122882611186565b6112328185611191565b935083602082028501611244856111a2565b8060005b85811015611280578484038952815161126185826111fc565b945061126c83611210565b925060208a01995050600181019050611248565b50829750879550505050505092915050565b61129b81610aae565b82525050565b600060a0820190506112b66000830188611147565b81810360208301526112c8818761121d565b905081810360408301526112dc8186610ff4565b90506112eb6060830185611292565b81810360808301526112fd8184610ff4565b90509695505050505050565b7f5369676e617475726556657269666965723a20496e76616c696420736967617460008201527f7572650000000000000000000000000000000000000000000000000000000000602082015250565b6000611365602383610e2b565b915061137082611309565b604082019050919050565b6000602082019050818103600083015261139481611358565b9050919050565b600081905092915050565b7f1900000000000000000000000000000000000000000000000000000000000000600082015250565b60006113dc60028361139b565b91506113e7826113a6565b600282019050919050565b60008160601b9050919050565b600061140a826113f2565b9050919050565b600061141c826113ff565b9050919050565b61143461142f82610b89565b611411565b82525050565b60008160c01b9050919050565b60006114528261143a565b9050919050565b61146a61146582610bc7565b611447565b82525050565b6000819050919050565b61148b61148682610dec565b611470565b82525050565b600061149c826113cf565b91506114a88287611423565b6014820191506114b88286611459565b6008820191506114c8828561147a565b6020820191506114d8828461147a565b60208201915081905095945050505050565b60008060006060848603121561150357611502610aa4565b5b600084013567ffffffffffffffff81111561152157611520610aa9565b5b61152d86828701610d1f565b935050602061153e86828701610bf2565b925050604084013567ffffffffffffffff81111561155f5761155e610aa9565b5b61156b86828701610d1f565b9150509250925092565b600061158082610b69565b9050919050565b61159081611575565b811461159b57600080fd5b50565b6000813590506115ad81611587565b92915050565b600080604083850312156115ca576115c9610aa4565b5b600083013567ffffffffffffffff8111156115e8576115e7610aa9565b5b6115f485828601610d1f565b92505060206116058582860161159e565b9150509250929050565b7f5369676e617475726556657269666965723a205369676e61747572652065787060008201527f6972656400000000000000000000000000000000000000000000000000000000602082015250565b600061166b602483610e2b565b91506116768261160f565b604082019050919050565b6000602082019050818103600083015261169a8161165e565b9050919050565b7f4e487b7100000000000000000000000000000000000000000000000000000000600052602160045260246000fd5b7f45434453413a20696e76616c6964207369676e61747572650000000000000000600082015250565b6000611706601883610e2b565b9150611711826116d0565b602082019050919050565b60006020820190508181036000830152611735816116f9565b9050919050565b7f45434453413a20696e76616c6964207369676e6174757265206c656e67746800600082015250565b6000611772601f83610e2b565b915061177d8261173c565b602082019050919050565b600060208201905081810360008301526117a181611765565b9050919050565b7f45434453413a20696e76616c6964207369676e6174757265202773272076616c60008201527f7565000000000000000000000000000000000000000000000000000000000000602082015250565b6000611804602283610e2b565b915061180f826117a8565b604082019050919050565b60006020820190508181036000830152611833816117f7565b9050919050565b7f45434453413a20696e76616c6964207369676e6174757265202776272076616c60008201527f7565000000000000000000000000000000000000000000000000000000000000602082015250565b6000611896602283610e2b565b91506118a18261183a565b604082019050919050565b600060208201905081810360008301526118c581611889565b9050919050565b600060ff82169050919050565b6118e2816118cc565b82525050565b60006080820190506118fd6000830187610df6565b61190a60208301866118d9565b6119176040830185610df6565b6119246060830184610df6565b95945050505050565b6000819050919050565b7f4e487b7100000000000000000000000000000000000000000000000000000000600052601160045260246000fd5b60006119718261192d565b915061197c8361192d565b9250827fffffffffffffffffffffffffffffffffffffffffffffffffffffffffffffffff038211156119b1576119b0611937565b5b82820190509291505056fea264697066735822122072c4cc0de054e4244b883c3166946e18327cd63682d41c73f0b1fb87dc80162564736f6c634300080a0033",
  "linkReferences": {},
  "deployedLinkReferences": {}
}